{
  "abi": [
    {
      "inputs": [
        {
          "internalType": "address",
          "name": "_gateway",
          "type": "address"
        }
      ],
      "stateMutability": "nonpayable",
      "type": "constructor"
    },
    {
      "inputs": [
        {
          "internalType": "string",
          "name": "name",
          "type": "string"
        }
      ],
      "name": "FunctionIdNotFound",
      "type": "error"
    },
    {
      "inputs": [],
      "name": "LatestHeaderNotFound",
      "type": "error"
    },
    {
      "inputs": [],
      "name": "ProofBlockRangeTooLarge",
      "type": "error"
    },
    {
      "inputs": [],
      "name": "TargetLessThanLatest",
      "type": "error"
    },
    {
      "anonymous": false,
      "inputs": [
        {
          "indexed": true,
          "internalType": "uint64",
          "name": "startBlock",
          "type": "uint64"
        },
        {
          "indexed": true,
          "internalType": "uint64",
          "name": "targetBlock",
          "type": "uint64"
        },
        {
          "indexed": false,
          "internalType": "bytes32",
          "name": "targetHeader",
          "type": "bytes32"
        },
        {
          "indexed": false,
          "internalType": "bytes32",
          "name": "dataCommitment",
          "type": "bytes32"
        }
      ],
      "name": "CombinedSkipFulfilled",
      "type": "event"
    },
    {
      "anonymous": false,
      "inputs": [
        {
          "indexed": true,
          "internalType": "uint64",
          "name": "startBlock",
          "type": "uint64"
        },
        {
          "indexed": true,
          "internalType": "uint64",
          "name": "targetBlock",
          "type": "uint64"
        },
        {
          "indexed": false,
          "internalType": "bytes32",
          "name": "requestId",
          "type": "bytes32"
        }
      ],
      "name": "CombinedSkipRequested",
      "type": "event"
    },
    {
      "anonymous": false,
      "inputs": [
        {
          "indexed": true,
          "internalType": "uint64",
          "name": "startBlock",
          "type": "uint64"
        },
        {
          "indexed": false,
          "internalType": "bytes32",
          "name": "targetHeader",
          "type": "bytes32"
        },
        {
          "indexed": false,
          "internalType": "bytes32",
          "name": "dataCommitment",
          "type": "bytes32"
        }
      ],
      "name": "CombinedStepFulfilled",
      "type": "event"
    },
    {
      "anonymous": false,
      "inputs": [
        {
          "indexed": true,
          "internalType": "uint64",
          "name": "startBlock",
          "type": "uint64"
        },
        {
          "indexed": false,
          "internalType": "bytes32",
          "name": "requestId",
          "type": "bytes32"
        }
      ],
      "name": "CombinedStepRequested",
      "type": "event"
    },
    {
      "inputs": [],
      "name": "DATA_COMMITMENT_MAX",
      "outputs": [
        {
          "internalType": "uint64",
          "name": "",
          "type": "uint64"
        }
      ],
      "stateMutability": "view",
      "type": "function"
    },
    {
      "inputs": [
        {
          "internalType": "uint64",
          "name": "",
          "type": "uint64"
        }
      ],
      "name": "blockHeightToHeaderHash",
      "outputs": [
        {
          "internalType": "bytes32",
          "name": "",
          "type": "bytes32"
        }
      ],
      "stateMutability": "view",
      "type": "function"
    },
    {
      "inputs": [
        {
          "internalType": "bytes",
          "name": "requestResult",
          "type": "bytes"
        },
        {
          "internalType": "bytes",
          "name": "context",
          "type": "bytes"
        }
      ],
      "name": "callbackCombinedSkip",
      "outputs": [],
      "stateMutability": "nonpayable",
      "type": "function"
    },
    {
      "inputs": [
        {
          "internalType": "bytes",
          "name": "requestResult",
          "type": "bytes"
        },
        {
          "internalType": "bytes",
          "name": "context",
          "type": "bytes"
        }
      ],
      "name": "callbackCombinedStep",
      "outputs": [],
      "stateMutability": "nonpayable",
      "type": "function"
    },
    {
      "inputs": [
        {
          "internalType": "bytes32",
          "name": "",
          "type": "bytes32"
        }
      ],
      "name": "dataCommitments",
      "outputs": [
        {
          "internalType": "bytes32",
          "name": "",
          "type": "bytes32"
        }
      ],
      "stateMutability": "view",
      "type": "function"
    },
    {
      "inputs": [
        {
          "internalType": "string",
          "name": "",
          "type": "string"
        }
      ],
      "name": "functionNameToId",
      "outputs": [
        {
          "internalType": "bytes32",
          "name": "",
          "type": "bytes32"
        }
      ],
      "stateMutability": "view",
      "type": "function"
    },
    {
      "inputs": [],
      "name": "gateway",
      "outputs": [
        {
          "internalType": "address",
          "name": "",
          "type": "address"
        }
      ],
      "stateMutability": "view",
      "type": "function"
    },
    {
      "inputs": [
        {
          "internalType": "uint64",
          "name": "startBlock",
          "type": "uint64"
        },
        {
          "internalType": "uint64",
          "name": "endBlock",
          "type": "uint64"
        }
      ],
      "name": "getDataCommitment",
      "outputs": [
        {
          "internalType": "bytes32",
          "name": "",
          "type": "bytes32"
        }
      ],
      "stateMutability": "view",
      "type": "function"
    },
    {
      "inputs": [
        {
          "internalType": "string",
          "name": "name",
          "type": "string"
        }
      ],
      "name": "getFunctionId",
      "outputs": [
        {
          "internalType": "bytes32",
          "name": "",
          "type": "bytes32"
        }
      ],
      "stateMutability": "view",
      "type": "function"
    },
    {
      "inputs": [
        {
          "internalType": "uint64",
          "name": "height",
          "type": "uint64"
        }
      ],
      "name": "getHeaderHash",
      "outputs": [
        {
          "internalType": "bytes32",
          "name": "",
          "type": "bytes32"
        }
      ],
      "stateMutability": "view",
      "type": "function"
    },
    {
      "inputs": [],
      "name": "latestBlock",
      "outputs": [
        {
          "internalType": "uint64",
          "name": "",
          "type": "uint64"
        }
      ],
      "stateMutability": "view",
      "type": "function"
    },
    {
      "inputs": [
        {
          "internalType": "uint64",
          "name": "_requestedBlock",
          "type": "uint64"
        }
      ],
      "name": "requestCombinedSkip",
      "outputs": [],
      "stateMutability": "payable",
      "type": "function"
    },
    {
      "inputs": [],
      "name": "requestCombinedStep",
      "outputs": [],
      "stateMutability": "payable",
      "type": "function"
    },
    {
      "inputs": [
        {
          "internalType": "uint64",
          "name": "height",
          "type": "uint64"
        },
        {
          "internalType": "bytes32",
          "name": "header",
          "type": "bytes32"
        }
      ],
      "name": "setGenesisHeader",
      "outputs": [],
      "stateMutability": "nonpayable",
      "type": "function"
    },
    {
      "inputs": [
        {
          "internalType": "string",
          "name": "name",
          "type": "string"
        },
        {
          "internalType": "bytes32",
          "name": "_functionId",
          "type": "bytes32"
        }
      ],
      "name": "updateFunctionId",
      "outputs": [],
      "stateMutability": "nonpayable",
      "type": "function"
    },
    {
      "inputs": [
        {
          "internalType": "address",
          "name": "_gateway",
          "type": "address"
        }
      ],
      "name": "updateGateway",
      "outputs": [],
      "stateMutability": "nonpayable",
      "type": "function"
    },
    {
      "inputs": [
        {
          "internalType": "uint256",
          "name": "startBlock",
          "type": "uint256"
        },
        {
          "internalType": "uint256",
          "name": "endBlock",
          "type": "uint256"
        },
        {
          "components": [
            {
              "internalType": "uint256",
              "name": "height",
              "type": "uint256"
            },
            {
              "internalType": "bytes32",
              "name": "dataRoot",
              "type": "bytes32"
            }
          ],
          "internalType": "struct DataRootTuple",
          "name": "_tuple",
          "type": "tuple"
        },
        {
          "components": [
            {
              "internalType": "bytes32[]",
              "name": "sideNodes",
              "type": "bytes32[]"
            },
            {
              "internalType": "uint256",
              "name": "key",
              "type": "uint256"
            },
            {
              "internalType": "uint256",
              "name": "numLeaves",
              "type": "uint256"
            }
          ],
          "internalType": "struct BinaryMerkleProof",
          "name": "_proof",
          "type": "tuple"
        }
      ],
      "name": "verifyMerkleProof",
      "outputs": [
        {
          "internalType": "bool",
          "name": "",
          "type": "bool"
        }
      ],
      "stateMutability": "view",
      "type": "function"
    }
  ],
  "bytecode": {
    "object": "0x6080604052600180546001600160401b0319166103e817905534801561002457600080fd5b506040516117c73803806117c783398101604081905261004391610068565b600080546001600160a01b0319166001600160a01b0392909216919091179055610098565b60006020828403121561007a57600080fd5b81516001600160a01b038116811461009157600080fd5b9392505050565b611720806100a76000396000f3fe6080604052600436106100fe5760003560e01c80638a34aa2b11610095578063b91deeb511610064578063b91deeb5146102ea578063c0346b201461030a578063c3e5517714610347578063ce353b341461039d578063d7e6c68b146103bd57600080fd5b80638a34aa2b1461026557806396139ebd14610295578063a68a62ae146102c2578063b053e8b5146102ca57600080fd5b8063223acffe116100d1578063223acffe146101da57806339a4d84b146101ef5780634710384e1461020f57806378802ef11461022f57600080fd5b806307e2da961461010357806308e93ea514610147578063116191b61461018257806320154c7d146101ba575b600080fd5b34801561010f57600080fd5b5060005461012a90600160a01b90046001600160401b031681565b6040516001600160401b0390911681526020015b60405180910390f35b34801561015357600080fd5b50610174610162366004611098565b60036020526000908152604090205481565b60405190815260200161013e565b34801561018e57600080fd5b506000546101a2906001600160a01b031681565b6040516001600160a01b03909116815260200161013e565b3480156101c657600080fd5b506101746101d53660046110b5565b6103f5565b6101ed6101e8366004611098565b610451565b005b3480156101fb57600080fd5b506101ed61020a3660046111ed565b6106d1565b34801561021b57600080fd5b5060015461012a906001600160401b031681565b34801561023b57600080fd5b5061017461024a366004611098565b6001600160401b031660009081526003602052604090205490565b34801561027157600080fd5b50610285610280366004611231565b6106f6565b604051901515815260200161013e565b3480156102a157600080fd5b506101746102b036600461135c565b60046020526000908152604090205481565b6101ed6107ad565b3480156102d657600080fd5b506101ed6102e5366004611375565b610997565b3480156102f657600080fd5b506101ed610305366004611375565b610af0565b34801561031657600080fd5b506101ed6103253660046113d8565b600080546001600160a01b0319166001600160a01b0392909216919091179055565b34801561035357600080fd5b506101ed610362366004611401565b6001600160401b0391909116600081815260036020526040812092909255815467ffffffffffffffff60a01b1916600160a01b909102179055565b3480156103a957600080fd5b506101746103b836600461142d565b610c39565b3480156103c957600080fd5b506101746103d836600461142d565b805160208183018101805160028252928201919093012091525481565b60006004600084846040516020016104239291906001600160401b0392831681529116602082015260400190565b6040516020818303038152906040528051906020012081526020019081526020016000205490505b92915050565b60008054600160a01b90046001600160401b03168152600360205260409020548061048f576040516352065af960e11b815260040160405180910390fd5b600060026040516104b2906b0636f6d62696e6564536b69760a41b8152600c0190565b9081526040519081900360200190205490508061050657604051631d4604eb60e11b815260206004820152600c60248201526b0636f6d62696e6564536b69760a41b60448201526064015b60405180910390fd5b6001546000546001600160401b039182169161052a91600160a01b90041685611477565b6001600160401b0316111561055257604051630e9da4f960e21b815260040160405180910390fd5b6000546001600160401b03600160a01b909104811690841611610588576040516329e3451360e01b815260040160405180910390fd5b6000805460408051600160a01b830460c081811b6001600160c01b03199081166020850152602884018990529089901b166048830152825160308184030181526050830184526001600160401b0391821660708401529088166090808401919091528351808403909101815260b083019384905263b3f04fdf60e01b9093526001600160a01b039093169263b3f04fdf923492610639928892909163b91deeb560e01b906207a1209060b4016114e7565b60206040518083038185885af1158015610657573d6000803e3d6000fd5b50505050506040513d601f19601f8201168201806040525081019061067c919061153c565b6000546040518281529192506001600160401b0386811692600160a01b90920416907f014d972621549e25527d9b73201fe71c02ef506769686afcdf81a92f7b9132ea9060200160405180910390a350505050565b806002836040516106e29190611555565b908152604051908190036020019020555050565b60008054600160a01b90046001600160401b0316841115610719575060006107a5565b600060046000878760405160200161073b929190918252602082015260400190565b60405160208183030381529060405280519060200120815260200190815260200160002054905060006107a082858760405160200161078c9190815181526020918201519181019190915260400190565b604051602081830303815290604052610c61565b925050505b949350505050565b60008054600160a01b90046001600160401b0316815260036020526040902054806107eb576040516352065af960e11b815260040160405180910390fd5b6000600260405161080e906b0636f6d62696e6564537465760a41b8152600c0190565b9081526040519081900360200190205490508061085d57604051631d4604eb60e11b815260206004820152600c60248201526b0636f6d62696e6564537465760a41b60448201526064016104fd565b600080546040516001600160c01b0319600160a01b830460c01b166020820152602881018590526001600160a01b039091169063b3f04fdf903490859060480160408051808303601f19018152828252600054600160a01b90046001600160401b03166020840152910160408051601f19818403018152908290526001600160e01b031960e087901b16825261090593929163b053e8b560e01b906207a120906004016114e7565b60206040518083038185885af1158015610923573d6000803e3d6000fd5b50505050506040513d601f19601f82011682018060405250810190610948919061153c565b600054604051828152919250600160a01b90046001600160401b0316907f51e82940b688858ec5c82f6c17e146db2093bec0944f60b0fd921381ef74204c9060200160405180910390a2505050565b6000546001600160a01b031633146109c15760405162461bcd60e51b81526004016104fd90611571565b6000818060200190518101906109d791906115b4565b9050600080848060200190518101906109f091906115d1565b90925090506000610a028460016115f5565b6000549091506001600160401b03600160a01b909104811690821611610a3b576040516329e3451360e01b815260040160405180910390fd5b6001600160401b03818116600081815260036020908152604080832088905580519489168583018190528582018590528151808703830181526060870180845281519185019190912085526004909352908320879055825467ffffffffffffffff60a01b1916600160a01b9094029390931790915585905260808201849052907f880abacb3515d667ad5a5a9ee88b0218eca5d7bf2d824d69e73a01d7d31703139060a00160405180910390a2505050505050565b6000546001600160a01b03163314610b1a5760405162461bcd60e51b81526004016104fd90611571565b60008082806020019051810190610b319190611615565b9150915060008085806020019051810190610b4c91906115d1565b60005491935091506001600160401b03600160a01b909104811690841611610b87576040516329e3451360e01b815260040160405180910390fd5b6001600160401b03838116600081815260036020908152604080832087905580519489168583018190528582018590528151808703830181526060870180845281519185019190912085526004909352908320869055825467ffffffffffffffff60a01b1916600160a01b8502179092558590526080830184905290917fc2d89d9b17fae0ddb047b2164e03760f75b6fee6bdbb291dd9867519ff5581399060a00160405180910390a3505050505050565b6000600282604051610c4b9190611555565b9081526020016040518091039020549050919050565b60006001836040015111610c845782515115610c7f57506000610ecc565b610ca6565b610c9683602001518460400151610ed3565b83515114610ca657506000610ecc565b8260400151836020015110610cbd57506000610ecc565b6000610cc883610f60565b845151909150600003610cf4578360400151600103610cea5784149050610ecc565b6000915050610ecc565b60208401516001905b60208601516000906001841b90610d15908290611644565b610d1f9190611666565b905060006001610d3181861b8461167d565b610d3b9190611690565b905087604001518110610d4f575050610e15565b915081610d5d600185611690565b88515111610d7357600095505050505050610ecc565b610d7e600185611690565b6001901b828960200151610d929190611690565b1015610dcf578751610dc8908690610dab600188611690565b81518110610dbb57610dbb6116a3565b6020026020010151610fd5565b9450610e01565b8751610dfe90610de0600187611690565b81518110610df057610df06116a3565b602002602001015186610fd5565b94505b610e0c60018561167d565b93505050610cfd565b60018660400151610e269190611690565b8114610e6e57610e37600183611690565b86515111610e4b5760009350505050610ecc565b8551610e5e908490610dab600186611690565b9250610e6b60018361167d565b91505b855151610e7c600184611690565b1015610ec5578551610eb190610e93600185611690565b81518110610ea357610ea36116a3565b602002602001015184610fd5565b9250610ebe60018361167d565b9150610e6e565b5050841490505b9392505050565b6000610ede82611053565b610eea90610100611690565b90506000610ef9600183611690565b6001901b9050600181610f0c9190611690565b8411610f18575061044b565b80600103610f2a57600191505061044b565b610f46610f378286611690565b610f418386611690565b610ed3565b610f5190600161167d565b91505061044b565b5092915050565b60006002600060f81b83604051602001610f7b9291906116b9565b60408051601f1981840301815290829052610f9591611555565b602060405180830381855afa158015610fb2573d6000803e3d6000fd5b5050506040513d601f19601f8201168201806040525081019061044b919061153c565b604051600160f81b6020820152602181018390526041810182905260009060029060610160408051601f198184030181529082905261101391611555565b602060405180830381855afa158015611030573d6000803e3d6000fd5b5050506040513d601f19601f82011682018060405250810190610ecc919061153c565b60005b81816001901b10156110745761106d60018261167d565b9050611056565b61044b81610100611690565b6001600160401b038116811461109557600080fd5b50565b6000602082840312156110aa57600080fd5b8135610ecc81611080565b600080604083850312156110c857600080fd5b82356110d381611080565b915060208301356110e381611080565b809150509250929050565b634e487b7160e01b600052604160045260246000fd5b604080519081016001600160401b0381118282101715611126576111266110ee565b60405290565b604051606081016001600160401b0381118282101715611126576111266110ee565b604051601f8201601f191681016001600160401b0381118282101715611176576111766110ee565b604052919050565b600082601f83011261118f57600080fd5b81356001600160401b038111156111a8576111a86110ee565b6111bb601f8201601f191660200161114e565b8181528460208386010111156111d057600080fd5b816020850160208301376000918101602001919091529392505050565b6000806040838503121561120057600080fd5b82356001600160401b0381111561121657600080fd5b6112228582860161117e565b95602094909401359450505050565b60008060008084860360a081121561124857600080fd5b8535945060208087013594506040603f198301121561126657600080fd5b61126e611104565b604088013581526060880135828201529350608087013591506001600160401b038083111561129c57600080fd5b918701916060838a0312156112b057600080fd5b6112b861112c565b8335828111156112c757600080fd5b8401601f81018b136112d857600080fd5b8035838111156112ea576112ea6110ee565b8060051b93506112fb85850161114e565b818152938201850193858101908d86111561131557600080fd5b928601925b858410156113335783358252928601929086019061131a565b808552505050508284013583820152604084013560408201528094505050505092959194509250565b60006020828403121561136e57600080fd5b5035919050565b6000806040838503121561138857600080fd5b82356001600160401b038082111561139f57600080fd5b6113ab8683870161117e565b935060208501359150808211156113c157600080fd5b506113ce8582860161117e565b9150509250929050565b6000602082840312156113ea57600080fd5b81356001600160a01b0381168114610ecc57600080fd5b6000806040838503121561141457600080fd5b823561141f81611080565b946020939093013593505050565b60006020828403121561143f57600080fd5b81356001600160401b0381111561145557600080fd5b6107a58482850161117e565b634e487b7160e01b600052601160045260246000fd5b6001600160401b03828116828216039080821115610f5957610f59611461565b60005b838110156114b257818101518382015260200161149a565b50506000910152565b600081518084526114d3816020860160208601611497565b601f01601f19169290920160200192915050565b85815260a06020820152600061150060a08301876114bb565b828103604084015261151281876114bb565b6001600160e01b0319959095166060840152505063ffffffff919091166080909101529392505050565b60006020828403121561154e57600080fd5b5051919050565b60008251611567818460208701611497565b9190910192915050565b60208082526023908201527f4f6e6c7920676174657761792063616e2063616c6c20746869732066756e637460408201526234b7b760e91b606082015260800190565b6000602082840312156115c657600080fd5b8151610ecc81611080565b600080604083850312156115e457600080fd5b505080516020909101519092909150565b6001600160401b03818116838216019080821115610f5957610f59611461565b6000806040838503121561162857600080fd5b825161163381611080565b60208401519092506110e381611080565b60008261166157634e487b7160e01b600052601260045260246000fd5b500490565b808202811582820484141761044b5761044b611461565b8082018082111561044b5761044b611461565b8181038181111561044b5761044b611461565b634e487b7160e01b600052603260045260246000fd5b6001600160f81b03198316815281516000906116dc816001850160208701611497565b91909101600101939250505056fea2646970667358221220ea9499bdc2e4093d7ed57c3d66d8944364a017d1dc03c4bed1e054aa12c2d64864736f6c63430008150033",
    "linkReferences": {}
  },
  "methodIdentifiers": {
    "DATA_COMMITMENT_MAX()": "4710384e",
    "blockHeightToHeaderHash(uint64)": "08e93ea5",
    "callbackCombinedSkip(bytes,bytes)": "b91deeb5",
    "callbackCombinedStep(bytes,bytes)": "b053e8b5",
    "dataCommitments(bytes32)": "96139ebd",
    "functionNameToId(string)": "d7e6c68b",
    "gateway()": "116191b6",
    "getDataCommitment(uint64,uint64)": "20154c7d",
    "getFunctionId(string)": "ce353b34",
    "getHeaderHash(uint64)": "78802ef1",
    "latestBlock()": "07e2da96",
    "requestCombinedSkip(uint64)": "223acffe",
    "requestCombinedStep()": "a68a62ae",
    "setGenesisHeader(uint64,bytes32)": "c3e55177",
    "updateFunctionId(string,bytes32)": "39a4d84b",
    "updateGateway(address)": "c0346b20",
    "verifyMerkleProof(uint256,uint256,(uint256,bytes32),(bytes32[],uint256,uint256))": "8a34aa2b"
  },
  "id": 30
}