{
  "abi": [
    {
      "inputs": [
        {
          "internalType": "address",
          "name": "_gateway",
          "type": "address"
        }
      ],
      "stateMutability": "nonpayable",
      "type": "constructor"
    },
    {
      "inputs": [
        {
          "internalType": "string",
          "name": "name",
          "type": "string"
        }
      ],
      "name": "FunctionIdNotFound",
      "type": "error"
    },
    {
      "inputs": [],
      "name": "LatestHeaderNotFound",
      "type": "error"
    },
    {
      "inputs": [],
      "name": "ProofBlockRangeTooLarge",
      "type": "error"
    },
    {
      "inputs": [],
      "name": "TargetLessThanLatest",
      "type": "error"
    },
    {
      "anonymous": false,
      "inputs": [
        {
          "indexed": true,
          "internalType": "uint64",
          "name": "startBlock",
          "type": "uint64"
        },
        {
          "indexed": true,
          "internalType": "uint64",
          "name": "targetBlock",
          "type": "uint64"
        },
        {
          "indexed": false,
          "internalType": "bytes32",
          "name": "header",
          "type": "bytes32"
        }
      ],
      "name": "HeaderSkipFulfilled",
      "type": "event"
    },
    {
      "anonymous": false,
      "inputs": [
        {
          "indexed": true,
          "internalType": "uint64",
          "name": "startBlock",
          "type": "uint64"
        },
        {
          "indexed": true,
          "internalType": "uint64",
          "name": "targetBlock",
          "type": "uint64"
        },
        {
          "indexed": false,
          "internalType": "bytes32",
          "name": "requestId",
          "type": "bytes32"
        }
      ],
      "name": "HeaderSkipRequested",
      "type": "event"
    },
    {
      "anonymous": false,
      "inputs": [
        {
          "indexed": true,
          "internalType": "uint64",
          "name": "startBlock",
          "type": "uint64"
        },
        {
          "indexed": false,
          "internalType": "bytes32",
          "name": "header",
          "type": "bytes32"
        }
      ],
      "name": "HeaderStepFulfilled",
      "type": "event"
    },
    {
      "anonymous": false,
      "inputs": [
        {
          "indexed": true,
          "internalType": "uint64",
          "name": "startBlock",
          "type": "uint64"
        },
        {
          "indexed": false,
          "internalType": "bytes32",
          "name": "requestId",
          "type": "bytes32"
        }
      ],
      "name": "HeaderStepRequested",
      "type": "event"
    },
    {
      "inputs": [],
      "name": "SKIP_MAX",
      "outputs": [
        {
          "internalType": "uint64",
          "name": "",
          "type": "uint64"
        }
      ],
      "stateMutability": "view",
      "type": "function"
    },
    {
      "inputs": [
        {
          "internalType": "uint64",
          "name": "",
          "type": "uint64"
        }
      ],
      "name": "blockHeightToHeaderHash",
      "outputs": [
        {
          "internalType": "bytes32",
          "name": "",
          "type": "bytes32"
        }
      ],
      "stateMutability": "view",
      "type": "function"
    },
    {
      "inputs": [
        {
          "internalType": "bytes",
          "name": "requestResult",
          "type": "bytes"
        },
        {
          "internalType": "bytes",
          "name": "context",
          "type": "bytes"
        }
      ],
      "name": "callbackHeaderSkip",
      "outputs": [],
      "stateMutability": "nonpayable",
      "type": "function"
    },
    {
      "inputs": [
        {
          "internalType": "bytes",
          "name": "requestResult",
          "type": "bytes"
        },
        {
          "internalType": "bytes",
          "name": "context",
          "type": "bytes"
        }
      ],
      "name": "callbackHeaderStep",
      "outputs": [],
      "stateMutability": "nonpayable",
      "type": "function"
    },
    {
      "inputs": [
        {
          "internalType": "string",
          "name": "",
          "type": "string"
        }
      ],
      "name": "functionNameToId",
      "outputs": [
        {
          "internalType": "bytes32",
          "name": "",
          "type": "bytes32"
        }
      ],
      "stateMutability": "view",
      "type": "function"
    },
    {
      "inputs": [],
      "name": "gateway",
      "outputs": [
        {
          "internalType": "address",
          "name": "",
          "type": "address"
        }
      ],
      "stateMutability": "view",
      "type": "function"
    },
    {
      "inputs": [
        {
          "internalType": "string",
          "name": "name",
          "type": "string"
        }
      ],
      "name": "getFunctionId",
      "outputs": [
        {
          "internalType": "bytes32",
          "name": "",
          "type": "bytes32"
        }
      ],
      "stateMutability": "view",
      "type": "function"
    },
    {
      "inputs": [
        {
          "internalType": "uint64",
          "name": "height",
          "type": "uint64"
        }
      ],
      "name": "getHeaderHash",
      "outputs": [
        {
          "internalType": "bytes32",
          "name": "",
          "type": "bytes32"
        }
      ],
      "stateMutability": "view",
      "type": "function"
    },
    {
      "inputs": [],
      "name": "latestBlock",
      "outputs": [
        {
          "internalType": "uint64",
          "name": "",
          "type": "uint64"
        }
      ],
      "stateMutability": "view",
      "type": "function"
    },
    {
      "inputs": [
        {
          "internalType": "uint64",
          "name": "_requestedBlock",
          "type": "uint64"
        }
      ],
      "name": "requestHeaderSkip",
      "outputs": [],
      "stateMutability": "payable",
      "type": "function"
    },
    {
      "inputs": [],
      "name": "requestHeaderStep",
      "outputs": [],
      "stateMutability": "payable",
      "type": "function"
    },
    {
      "inputs": [
        {
          "internalType": "uint64",
          "name": "height",
          "type": "uint64"
        },
        {
          "internalType": "bytes32",
          "name": "header",
          "type": "bytes32"
        }
      ],
      "name": "setGenesisHeader",
      "outputs": [],
      "stateMutability": "nonpayable",
      "type": "function"
    },
    {
      "inputs": [
        {
          "internalType": "string",
          "name": "name",
          "type": "string"
        },
        {
          "internalType": "bytes32",
          "name": "_functionId",
          "type": "bytes32"
        }
      ],
      "name": "updateFunctionId",
      "outputs": [],
      "stateMutability": "nonpayable",
      "type": "function"
    },
    {
      "inputs": [
        {
          "internalType": "address",
          "name": "_gateway",
          "type": "address"
        }
      ],
      "name": "updateGateway",
      "outputs": [],
      "stateMutability": "nonpayable",
      "type": "function"
    }
  ],
  "bytecode": {
    "object": "0x6080604052600180546001600160401b0319166103e817905534801561002457600080fd5b50604051610ec7380380610ec783398101604081905261004391610068565b600080546001600160a01b0319166001600160a01b0392909216919091179055610098565b60006020828403121561007a57600080fd5b81516001600160a01b038116811461009157600080fd5b9392505050565b610e20806100a76000396000f3fe6080604052600436106100dd5760003560e01c806386f7e0e91161007f578063ce353b3411610059578063ce353b34146102d7578063d7e6c68b146102f7578063e5df1e641461032f578063fb2da6c61461034f57600080fd5b806386f7e0e914610224578063c0346b2014610244578063c3e551771461028157600080fd5b8063116191b6116100bb578063116191b61461017657806339a4d84b146101ae5780637550fac3146101ce57806378802ef1146101ee57600080fd5b806307e2da96146100e257806308e93ea5146101265780631089a09a14610161575b600080fd5b3480156100ee57600080fd5b5060005461010990600160a01b90046001600160401b031681565b6040516001600160401b0390911681526020015b60405180910390f35b34801561013257600080fd5b50610153610141366004610a1b565b60036020526000908152604090205481565b60405190815260200161011d565b61017461016f366004610a1b565b610357565b005b34801561018257600080fd5b50600054610196906001600160a01b031681565b6040516001600160a01b03909116815260200161011d565b3480156101ba57600080fd5b506101746101c9366004610ae1565b6105cc565b3480156101da57600080fd5b506101746101e9366004610b25565b6105f1565b3480156101fa57600080fd5b50610153610209366004610a1b565b6001600160401b031660009081526003602052604090205490565b34801561023057600080fd5b5061017461023f366004610b25565b610701565b34801561025057600080fd5b5061017461025f366004610b88565b600080546001600160a01b0319166001600160a01b0392909216919091179055565b34801561028d57600080fd5b5061017461029c366004610bb1565b6001600160401b0391909116600081815260036020526040812092909255815467ffffffffffffffff60a01b1916600160a01b909102179055565b3480156102e357600080fd5b506101536102f2366004610bdd565b61080b565b34801561030357600080fd5b50610153610312366004610bdd565b805160208183018101805160028252928201919093012091525481565b34801561033b57600080fd5b50600154610109906001600160401b031681565b610174610833565b60008054600160a01b90046001600160401b031681526003602052604090205480610395576040516352065af960e11b815260040160405180910390fd5b600060026040516103b090630736b69760e41b815260040190565b9081526040519081900360200190205490508061040257604051631d4604eb60e11b81526004016103f9906020808252600490820152630736b69760e41b604082015260600190565b60405180910390fd5b6001546000546001600160401b039182169161042691600160a01b90041685610c2f565b6001600160401b0316111561044e57604051630e9da4f960e21b815260040160405180910390fd5b6000546001600160401b03600160a01b909104811690841611610484576040516329e3451360e01b815260040160405180910390fd5b600080546040805160208101869052600160a01b830460c081811b6001600160c01b0319908116848601529089901b166048830152825160308184030181526050830184526001600160401b0391821660708401529088166090808401919091528351808403909101815260b083019384905263b3f04fdf60e01b9093526001600160a01b039093169263b3f04fdf92349261053492889290916386f7e0e960e01b906207a1209060b401610ca6565b60206040518083038185885af1158015610552573d6000803e3d6000fd5b50505050506040513d601f19601f820116820180604052508101906105779190610cfb565b6000546040518281529192506001600160401b0386811692600160a01b90920416907f6386dad036559a5a0c77a7e4374caf1c2fc1538ee42f8af8be98883accb711419060200160405180910390a350505050565b806002836040516105dd9190610d14565b908152604051908190036020019020555050565b6000546001600160a01b0316331461061b5760405162461bcd60e51b81526004016103f990610d30565b6000818060200190518101906106319190610d73565b90506000838060200190518101906106499190610cfb565b90506000610658836001610d90565b6000549091506001600160401b03600160a01b909104811690821611610691576040516329e3451360e01b815260040160405180910390fd5b6001600160401b0381166000818152600360209081526040808320869055825467ffffffffffffffff60a01b1916600160a01b85021790925590518481527fe4b203021c4fb16d214fc37a5f2ce79e7592aa7d12648faf1237e19b6ae58060910160405180910390a25050505050565b6000546001600160a01b0316331461072b5760405162461bcd60e51b81526004016103f990610d30565b600080828060200190518101906107429190610db0565b9150915060008480602001905181019061075c9190610cfb565b6000549091506001600160401b03600160a01b909104811690831611610795576040516329e3451360e01b815260040160405180910390fd5b6001600160401b038281166000818152600360209081526040808320869055825467ffffffffffffffff60a01b1916600160a01b850217909255905184815291928616917f5cf8ba4d5145f539d7f3c0323c586fc09306d0b26d25a6eec6aa81cd8c7e55c6910160405180910390a35050505050565b600060028260405161081d9190610d14565b9081526020016040518091039020549050919050565b60008054600160a01b90046001600160401b031681526003602052604090205480610871576040516352065af960e11b815260040160405180910390fd5b6000600260405161088c90630737465760e41b815260040190565b908152604051908190036020019020549050806108d557604051631d4604eb60e11b81526004016103f9906020808252600490820152630737465760e41b604082015260600190565b600080546040805160208101869052600160a01b830460c081901b6001600160c01b03191682840152825160288184030181526048830184526001600160401b0390911660688084019190915283518084039091018152608883019384905263b3f04fdf60e01b9093526001600160a01b039093169263b3f04fdf9234926109719288929091637550fac360e01b906207a12090608c01610ca6565b60206040518083038185885af115801561098f573d6000803e3d6000fd5b50505050506040513d601f19601f820116820180604052508101906109b49190610cfb565b600054604051828152919250600160a01b90046001600160401b0316907fdfc6ffe07e29b145877012df08f9274e3d2356cbb66e9d01a9e2d16d0cda02919060200160405180910390a2505050565b6001600160401b0381168114610a1857600080fd5b50565b600060208284031215610a2d57600080fd5b8135610a3881610a03565b9392505050565b634e487b7160e01b600052604160045260246000fd5b600082601f830112610a6657600080fd5b81356001600160401b0380821115610a8057610a80610a3f565b604051601f8301601f19908116603f01168101908282118183101715610aa857610aa8610a3f565b81604052838152866020858801011115610ac157600080fd5b836020870160208301376000602085830101528094505050505092915050565b60008060408385031215610af457600080fd5b82356001600160401b03811115610b0a57600080fd5b610b1685828601610a55565b95602094909401359450505050565b60008060408385031215610b3857600080fd5b82356001600160401b0380821115610b4f57600080fd5b610b5b86838701610a55565b93506020850135915080821115610b7157600080fd5b50610b7e85828601610a55565b9150509250929050565b600060208284031215610b9a57600080fd5b81356001600160a01b0381168114610a3857600080fd5b60008060408385031215610bc457600080fd5b8235610bcf81610a03565b946020939093013593505050565b600060208284031215610bef57600080fd5b81356001600160401b03811115610c0557600080fd5b610c1184828501610a55565b949350505050565b634e487b7160e01b600052601160045260246000fd5b6001600160401b03828116828216039080821115610c4f57610c4f610c19565b5092915050565b60005b83811015610c71578181015183820152602001610c59565b50506000910152565b60008151808452610c92816020860160208601610c56565b601f01601f19169290920160200192915050565b85815260a060208201526000610cbf60a0830187610c7a565b8281036040840152610cd18187610c7a565b6001600160e01b0319959095166060840152505063ffffffff919091166080909101529392505050565b600060208284031215610d0d57600080fd5b5051919050565b60008251610d26818460208701610c56565b9190910192915050565b60208082526023908201527f4f6e6c7920676174657761792063616e2063616c6c20746869732066756e637460408201526234b7b760e91b606082015260800190565b600060208284031215610d8557600080fd5b8151610a3881610a03565b6001600160401b03818116838216019080821115610c4f57610c4f610c19565b60008060408385031215610dc357600080fd5b8251610dce81610a03565b6020840151909250610ddf81610a03565b80915050925092905056fea264697066735822122028459f5cd1a1598287999601994c579791fd13d126f0cb757b190395f308a5ba64736f6c63430008150033",
    "linkReferences": {}
  },
  "methodIdentifiers": {
    "SKIP_MAX()": "e5df1e64",
    "blockHeightToHeaderHash(uint64)": "08e93ea5",
    "callbackHeaderSkip(bytes,bytes)": "86f7e0e9",
    "callbackHeaderStep(bytes,bytes)": "7550fac3",
    "functionNameToId(string)": "d7e6c68b",
    "gateway()": "116191b6",
    "getFunctionId(string)": "ce353b34",
    "getHeaderHash(uint64)": "78802ef1",
    "latestBlock()": "07e2da96",
    "requestHeaderSkip(uint64)": "1089a09a",
    "requestHeaderStep()": "fb2da6c6",
    "setGenesisHeader(uint64,bytes32)": "c3e55177",
    "updateFunctionId(string,bytes32)": "39a4d84b",
    "updateGateway(address)": "c0346b20"
  },
  "id": 22
}